S01900007765656B3361737369676E6D656E7442322E737265637F
S113000045C0000053C0000051C000004FC00000B4
S11300104DC000004BC0000049C0000047C00000B4
S113002045C000004CC0000041C000003FC00000BB
S11300303DC000003BC0000039C0000037C00000D4
S113004035C0000033C0000031C000002FC00000E4
S11300502DC000002BC0000029C0000027C00000F4
S113006025C0000023C0000021C000001FC0000004
S11300701DC000001BC0000019C0000017C0000014
S113008015C0000013C0000011C0000011241FBEE1
S1130090CFEFD0E1DEBFCDBF21E0A0E0B1E001C0F1
S11300A01D92A330B207E1F73FD049C0A9CF8DE735
S11300B083BD8BE085BD87B7806887BF08951F9295
S11300C00F920FB60F9211242F938F939F938091C9
S11300D00101909102010196909302018093010124
S11300E020910001222361F00F97B4F082B38F773F
S11300F082BB1092000110920201109201010CC007
S1130100499754F082B3806882BB81E080930001F8
S113011010920201109201019F918F912F910F90E3
S11301200FBE0F901F90189580E881BBC0DF7894B4
S11301308FEC97E00197F1F700C00000F9CFF89435
S1050140FFCFEB
S9030000FC
