S01900007765656B3261737369676E6D656E7442352E737265637D
S113000045C0000058C0000056C0000054C00000A5
S113001052C0000050C000004EC000004CC00000A0
S11300204AC0000048C0000046C0000044C00000B0
S113003042C0000040C000003EC000003CC00000C0
S11300403AC0000038C0000036C0000034C00000D0
S113005032C0000030C000002EC000002CC00000E0
S11300602AC0000028C0000026C0000024C00000F0
S113007022C0000020C000001EC000001CC0000000
S11300801AC0000018C0000016C0000011241FBED2
S1130090CFEFD0E1DEBFCDBF11E0A0E0B1E0E4EBF3
S11300A0F1E000E00BBF02C007900D92AA31B10746
S11300B0D9F765D07DC0A4CF85B3886085BB8FECAC
S11300C097E00197F1F700C0000085B3877F85BBF7
S11300D08FEC97E00197F1F700C000000895CF93EB
S11300E08FEF84BB15BAC0E2C5BBE6DFC5BBE4DF56
S11300F080E885BBE1DF15BADFDF80EF85BBDCDF9D
S113010015BADADF80E685BBD7DFCF910895CF93A8
S1130110C82F85BB85B3846085BBCEDFC295C07F05
S1130120C5BB85B3846085BBC7DFCF910895CF93EA
S1130130DF93EC0102C0EBDF219688818111FBCFB4
S1130140DF91CF910895CF93C82F85BB85B38B7F63
S113015085BBB2DFC295C07FC5BB85B38B7F85BB32
S1130160ABDFCF9108958032910510F080E090E0EC
S1130170803191050CF0805D8068E5CF08958FEFA4
S113018081BBADDF80E091E0D2DF80E190E0EBDF86
S11301908DE091E0CCDF82B3805882BB2FE78AE107
S11301A096E0215080409040E1F700C00000F3CF7A
S10701B0F894FFCFED
S11301B45965646920796F752061726500426F74B2
S10D01C4746F6D20746578740000F8
S9030000FC
