S014000066696E616C50726F6A6563742E737265632F
S113000045C0000060C000005EC000005CC000008D
S11300105AC0000058C0000056C0000054C0000080
S113002052C0000054C200004EC000004CC000008A
S11300304AC0000048C0000046C0000044C00000A0
S113004042C0000040C000003EC000003CC00000B0
S11300503AC0000005C2000036C0000034C00000F1
S113006032C0000030C000002EC000002CC00000D0
S11300702AC0000028C0000026C0000024C00000E0
S113008022C0000020C000001EC0000011241FBEBA
S1130090CFEFD0E1DEBFCDBF11E0A0E0B1E0E0EBF7
S11300A0F7E000E00BBF02C007900D92AA33B1073E
S11300B0D9F721E0AAE3B1E001C01D92A635B20749
S11300C0E1F74DD273C39CCF1092710080E280930C
S11300D0700084E080937400089584EA809374002F
S11300E0809174008823E4F7089584E98093740070
S11300F008958093730084E8809374008091740061
S11301008823E4F708950F931F93CF93DF93C0E000
S1130110D0E00EC08E01000F111FDFDF88EE90E0EB
S1130120E8DFC801E6DF80E090E0E3DFDEDF219670
S1130130C830D1057CF3DF91CF911F910F910895C1
S1130140C3DF8FE19EE40197F1F700C00000C5DF33
S113015088EE90E0CEDF81E290E0CBDFC6DF8FE176
S11301609EE40197F1F700C00000B7DF88EE90E04D
S1130170C0DF80EA90E0BDDFB8DF8FE19EE4019745
S1130180F1F700C00000A9DF88EE90E0B2DF81E85B
S113019090E0AFDFAADF8FE19EE40197F1F700C0A2
S11301A000009BDF88EE90E0A4DF8FEE90E0A1DFFB
S11301B09CDF8FE19EE40197F1F700C00000A3CF1C
S11301C008950F931F93CF93DF9389309105B8F46B
S11301D08C01000F111FEB01D595C7957695762FED
S11301E06627779567957727C62BD72B76DF88EE1A
S11301F090E07FDFC8017DDFCE017BDF76DFDF911A
S1130200CF911F910F91089585B3886085BB8FECC2
S113021097E00197F1F700C0000085B3877F85BBA5
S11302208FEC97E00197F1F700C000000895CF9399
S11302308FEF84BB15BAC0E2C5BBE6DFC5BBE4DF04
S113024080E885BBE1DF15BADFDF80EF85BBDCDF4B
S113025015BADADF80E685BBD7DFCF910895CF9357
S1130260C82F85BB85B3846085BBCEDFC295C07FB4
S1130270C5BB85B3846085BBC7DFCF910895CF9399
S1130280C82F85BB85B38B7F85BBBEDFC295C07F7E
S1130290C5BB85B38B7F85BBB7DFCF91089581E064
S11302A0EEDF82E0ECCF08950F931F93CF93DF939B
S11302B08C01F5DFC0E0D0E002C0D1DF2196F80167
S11302C0EC0FFD1F80818111F8CFDF91CF911F9139
S11302D00F91089508950F931F93CF93DF9300E038
S11302E010E0C0E0D0E031C0FE01EE0FFF1FE45C7F
S11302F0FE4F80819181892B19F00F5F1F4F24C01D
S1130300FE01EE0FFF1FEA5FFE4F80819181BC0169
S1130310660F771F880F892F881F990B682B792BFD
S1130320772771836083CE014CDFD5D16AE070E01A
S113033064D1892B49F4FE01EE0FFF1FE45CFE4FEC
S113034081E090E0918380832196C830D10564F2E6
S11303500830110561F481E090E090933B018093B3
S11303603A018AE691E09093050180930401DF91BC
S1130370CF911F910F91089581E687B98EEE86B9CA
S113038008958DE783BD8BE085BD87B7806887BFFF
S1130390089510925301109252018091500190914E
S11303A05101833F22E0920724F465E070E025D1F7
S11303B002C066E970E0709317016093160180E053
S11303C090E008C0FC01EE0FFF1FE45CFE4F1182B9
S11303D01082019688309105ACF38BE691E09093FE
S11303E0050180930401089580914C0190914D0181
S11303F0892B69F08091540190915501909351019A
S11304008093500110924D0110924C01C2DF81E0A3
S113041090E090934F0180934E01109255011092F9
S11304205401089580914E0190914F01892B69F0F8
S11304308091540190915501909351018093500102
S113044010924F0110924E01A4DF81E090E090934E
S11304504D0180934C01109255011092540108955E
S11304601F920F920FB60F9211240BB60F922F9377
S11304703F934F935F936F937F938F939F93AF9328
S1130480BF93EF93FF9324B185B190E0880F991F38
S1130490880F991F822B8031910514F4A5DF04C0C5
S11304A0803C93400CF0BEDFFF91EF91BF91AF9180
S11304B09F918F917F916F915F914F913F912F9178
S11304C00F900BBE0F900FBE0F901F9018951F92A8
S11304D00F920FB60F9211240BB60F922F933F93E6
S11304E04F935F936F937F938F939F93AF93BF9338
S11304F0EF93FF938091540190915501019690934D
S113050055018093540180915201909153010196B9
S11305109093530180935201209116013091170159
S1130520281739074CF4E0910401F091050109956D
S11305301092530110925201FF91EF91BF91AF912C
S11305409F918F917F916F915F914F913F912F91E7
S11305500F900BBE0F900FBE0F901F901895109226
S113056061000FDF789408DF62DEEADDC0E0D0E0EE
S11305700AC0FE01EE0FFF1FEA5FFE4F608171812A
S1130580CE011FDE2196C830D1059CF388E191E0AD
S11305908BDE80913A0190913B010197D1F7E6E01F
S11305A0F1E020813181828193818223932324810C
S11305B035818223932326813781822393232085C7
S11305C031858223932322853385822393232485B3
S11305D03585822393232685378582239323892B8C
S11305E021F082E291E060DE03C08BE291E05CDE08
S11305F010923B0110923A01CCCF97FB072E16F4D0
S1130600009406D077FD08D00BD007FC05D03EF44B
S1130610909581959F4F0895709561957F4F0895AA
S1130620AA1BBB1B51E107C0AA1FBB1FA617B70714
S113063010F0A61BB70B881F991F5A95A9F7809530
S11306409095BC01CD0108958F929F92AF92BF9275
S1130650CF92DF92EF92FF92CF93DF93EC01688108
S113066079818A819B81611571058105910521F448
S113067064E279ED8BE597E02DE133EF41E050E062
S113068038D049015A019B01AC01A7EAB1E44DD02D
S11306906B017C01ACEEB4EFA501940152D0DC01F6
S11306A0CB018C0D9D1DAE1DBF1DB7FF03C001976F
S11306B0A109B04888839983AA83BB839F77DF917C
S11306C0CF91FF90EF90DF90CF90BF90AF909F902D
S11306D08F900895B9CF80E091E0B6CFA0E0B0E06C
S11306E08093000190930101A0930201B093030150
S11306F00895052E97FB16F400940FD057FD05D0EE
S113070024D007FC02D046F408C05095409530959B
S113071021953F4F4F4F5F4F089590958095709569
S113072061957F4F8F4F9F4F089531D0A59F900DB6
S1130730B49F900DA49F800D911D11240895B7FFBF
S1130740F4CFF3DF821B930B0895A1E21A2EAA1BA8
S1130750BB1BFD010DC0AA1FBB1FEE1FFF1FA2176D
S1130760B307E407F50720F0A21BB30BE40BF50B6A
S1130770661F771F881F991F1A9469F760957095F3
S1130780809590959B01AC01BD01CF010895A29F76
S1130790B001B39FC001A39F700D811D1124911D51
S11307A0B29F700D811D1124911D0895F894FFCFFF
S11307B0010000006A010F00F0000F00F0000F00BC
S11307C0F0000F00F0006400506C6179206E6F77C8
S11307D02100596F7520776F6E21006F6F70732041
S10D07E074727920616761696E008C
S9030000FC
