S014000066696E616C50726F6A6563742E737265632F
S113000045C0000060C000005EC000005CC000008D
S11300105AC0000058C0000056C0000054C0000080
S113002052C0000047C200004EC000004CC0000097
S11300304AC0000048C0000046C0000044C00000A0
S113004042C0000040C000003EC000003CC00000B0
S11300503AC00000F5C1000036C0000034C0000002
S113006032C0000030C000002EC000002CC00000D0
S11300702AC0000028C0000026C0000024C00000E0
S113008022C0000020C000001EC0000011241FBEBA
S1130090CFEFD0E1DEBFCDBF11E0A0E0B1E0E6E9F3
S11300A0F7E000E00BBF02C007900D92A833B10740
S11300B0D9F721E0A8E3B1E001C01D92A435B2074D
S11300C0E1F73CD266C39CCF1092710080E280932A
S11300D0700084E080937400089584EA809374002F
S11300E0809174008823E4F7089584E98093740070
S11300F08091740084FDFCCF08958093730084E89C
S113010080937400809174008823E4F780917100D7
S1130110887F08950F931F93CF93DF93C0E0D0E0BF
S11301200CC08E01000F111FD8DF88EEE6DF802F90
S1130130E4DF80E0E2DFD9DF2196C830D1058CF31B
S1130140DF91CF911F910F910895BEDF8FE19EE45F
S11301500197F1F700C00000C0DF88EECEDF81E236
S1130160CCDFC3DF8FE19EE40197F1F700C000000C
S1130170B4DF88EEC2DF80EAC0DFB7DF8FE19EE440
S11301800197F1F700C00000A8DF88EEB6DF81E830
S1130190B4DFABDF8FE19EE40197F1F700C000000C
S11301A09CDF88EEAADF8FEEA8DF9FDF8FE19EE45D
S11301B00197F1F700C00000ADCF08950F931F938E
S11301C0CF93DF9389309105B0F48C01000F111F98
S11301D0EB01D595C7957695762F66277795679524
S11301E07727C62BD72B79DF88EE87DF802F85DF33
S11301F08C2F83DF7ADFDF91CF911F910F910895C8
S113020085B3886085BB8FEC97E00197F1F700C058
S1130210000085B3877F85BB8FEC97E00197F1F7EA
S113022000C000000895CF938FEF84BB15BAC0E2DD
S1130230C5BBE6DFC5BBE4DF80E885BBE1DF15BAFB
S1130240DFDF80EF85BBDCDF15BADADF80E685BB54
S1130250D7DFCF910895CF93C82F85BB85B3846032
S113026085BBCEDFC295C07FC5BB85B3846085BB2B
S1130270C7DFCF910895CF93C82F85BB85B38B7FFC
S113028085BBBEDFC295C07FC5BB85B38B7F85BBF5
S1130290B7DFCF91089581E0EEDF82E0ECCF0895DF
S11302A00F931F93CF93DF938C01F5DFC0E0D0E071
S11302B002C0D1DF2196F801EC0FFD1F808181116E
S11302C0F8CFDF91CF911F910F91089508950F9367
S11302D01F93CF93DF9300E010E0C0E0D0E031C083
S11302E0FE01EE0FFF1FE65CFE4F80819181892B9A
S11302F019F00F5F1F4F24C0FE01EE0FFF1FEA5FCE
S1130300FE4F80819181BC01660F771F880F892F72
S1130310881F990B682B792B772771836083CE0113
S11303204DDFCCD16AE070E05BD1892B49F4FE014A
S1130330EE0FFF1FE65CFE4F81E090E09183808327
S11303402196C830D10564F20830110561F481E0CA
S113035090E0909339018093380186E691E0909380
S1130360050180930401DF91CF911F910F910895AE
S113037081E687B98EEE86B908958DE783BD8BE05B
S113038085BD87B7806887BF089510925101109288
S1130390500180E090E008C0FC01EE0FFF1FE65C16
S11303A0FE4F11821082019688309105ACF387E6E6
S11303B091E09093050180930401089580914A018E
S11303C090914B01892B81F08091520182BB8091E5
S11303D052019091530190934F0180934E011092DA
S11303E04B0110924A01D1DF81E090E090934D01DE
S11303F080934C0110925301109252010895809100
S11304004C0190914D01892B81F08091520182BB66
S1130410809152019091530190934F0180934E012A
S113042010924D0110924C01B0DF81E090E0909366
S11304304B0180934A011092530110925201089586
S11304401F920F920FB60F9211240BB60F922F9397
S11304503F934F935F936F937F938F939F93AF9348
S1130460BF93EF93FF9324B135B1832F90E028BB62
S11304703BBB880F991F880F991F822B80319105F0
S113048014F49CDF04C0803C93400CF0B8DFFF916F
S1130490EF91BF91AF919F918F917F916F915F91F8
S11304A04F913F912F910F900BBE0F900FBE0F9065
S11304B01F9018951F920F920FB60F9211240BB62E
S11304C00F922F933F934F935F936F937F938F93E9
S11304D09F93AF93BF93EF93FF93809152019091B9
S11304E053010196909353018093520180915001DE
S11304F0909151010196909351018093500185365A
S113050091054CF0E0910401F091050109951092D8
S1130510510110925001FF91EF91BF91AF919F91C2
S11305208F917F916F915F914F913F912F910F9098
S11305300BBE0F900FBE0F901F9018951092610084
S11305408FEF8ABB87BB81BB18DF789411DF6BDE2A
S1130550FCDDC0E0D0E00AC0FE01EE0FFF1FEA5F41
S1130560FE4F60817181CE0129DE2196C830D1050C
S11305709CF386E191E094DE8091380190913901F9
S11305800197D1F7E6E0F1E0208131818281938106
S113059082239323248135818223932326813781E7
S11305A082239323208531858223932322853385D7
S11305B082239323248535858223932326853785B7
S11305C082239323892B21F080E291E069DE03C02A
S11305D089E291E065DE1092390110923801CCCFA6
S11305E097FB072E16F4009406D077FD08D00BD0A5
S11305F007FC05D03EF4909581959F4F0895709522
S113060061957F4F0895AA1BBB1B51E107C0AA1F28
S1130610BB1FA617B70710F0A61BB70B881F991F9F
S11306205A95A9F780959095BC01CD0108958F92B4
S11306309F92AF92BF92CF92DF92EF92FF92CF93AD
S1130640DF93EC01688179818A819B816115710551
S11306508105910521F464E279ED8BE597E02DE1C4
S113066033EF41E050E038D049015A019B01AC011D
S1130670A7EAB1E44DD06B017C01ACEEB4EFA50167
S1130680940152D0DC01CB018C0D9D1DAE1DBF1D0C
S1130690B7FF03C00197A109B04888839983AA834F
S11306A0BB839F77DF91CF91FF90EF90DF90CF9046
S11306B0BF90AF909F908F900895B9CF80E091E064
S11306C0B6CFA0E0B0E08093000190930101A09325
S11306D00201B09303010895052E97FB16F40094CC
S11306E00FD057FD05D024D007FC02D046F408C033
S11306F050954095309521953F4F4F4F5F4F08954A
S113070090958095709561957F4F8F4F9F4F089579
S113071031D0A59F900DB49F900DA49F800D911D85
S113072011240895B7FFF4CFF3DF821B930B0895D0
S1130730A1E21A2EAA1BBB1BFD010DC0AA1FBB1FE1
S1130740EE1FFF1FA217B307E407F50720F0A21B53
S1130750B30BE40BF50B661F771F881F991F1A94C0
S113076069F760957095809590959B01AC01BD01EA
S1130770CF010895A29FB001B39FC001A39F700D44
S1130780811D1124911DB29F700D811D1124911D95
S10907900895F894FFCF68
S11307960100000066010700E0000700E000070012
S11307A6E0000700E000506C6179206E6F7721004D
S11307B6596F7520776F6E21006F6F707320747296
S10B07C67920616761696E008E
S9030000FC
