S014000066696E616C50726F6A6563742E737265632F
S113000045C0000053C0000051C000004FC00000B4
S11300104DC000004BC0000049C0000047C00000B4
S113002045C0000085C1000041C000003FC0000081
S11300303DC000003BC0000039C0000037C00000D4
S113004035C0000033C0000031C000002FC00000E4
S11300502DC0000036C1000029C0000027C00000E8
S113006025C0000023C0000021C000001FC0000004
S11300701DC000001BC0000019C0000017C0000014
S113008015C0000013C0000011C0000011241FBEE1
S1130090CFEFD0E1DEBFCDBF21E0A0E0B1E001C0F1
S11300A01D92A630B207E1F75AD19BC1A9CF8FEFB9
S11300B087BB87B3877F87BB88B3816088BB82E5B2
S11300C08DB908958FB9779BFECF089598B321E039
S11300D030E002C0220F331F8A95E2F720952923CE
S11300E028BB089598B321E030E002C0220F331FEB
S11300F08A95E2F7292B28BB089580E0E7DF89E0A1
S1130100E1DF8FEFDFDF80E0EDDF80E0DFDF8AE03B
S1130110D9DF8FE0D7DF80E0E5DF80E0D7DF8BE059
S1130120D1DF83E0CFDF80E0DDDF80E0CFDF8CE074
S1130130C9DF81E0C7DF80E0D5CF0895CF93DF9397
S1130140D82FC62F80E0C2DF8D2FBCDF8C2FBADF03
S113015080E0C8DFDF91CF91089561157105A1F0AA
S1130160AC0121E030E00AC0FA01E89FA001E99F58
S1130170500DF89F500D11242F5F3F4F261737075E
S11301809CF3842F952F089581E090E00895EF92D9
S1130190FF920F931F93CF93DF939C0129513C4F00
S11301A0273F3A4208F03FC08C019923B4F41BC0A6
S11301B0BE018AE090E0D1DFBC01C801EBD07C0134
S11301C0BE01615071098AE090E0C7DFBC01C7013C
S11301D0E1D08C2FB3DF219602C0C1E0D0E0C5305E
S11301E0D10534F320C0119501951109C1E0D0E087
S11301F014C0BE018AE090E0B0DFBC01C801CAD0DF
S11302007C01BE01615071098AE090E0A6DFBC0167
S1130210C701C0D08C2F92DF2196C430D1054CF396
S11302206AE084E08BDFDF91CF911F910F91FF9003
S1130230EF90089581E687B98EEE86B908958DE72B
S113024083BD8BE085BD87B7806887BF08958091A3
S1130250000190910101892B61F08091040182BB1E
S1130260809104019091050192DF10920101109296
S1130270000181E090E090930301809302011092C9
S113028005011092040108958091020190910301E7
S1130290892B61F08091040182BB809104019091CB
S11302A0050175DF109203011092020181E090E0D4
S11302B090930101809300011092050110920401B2
S11302C008951F920F920FB60F9211240BB60F923E
S11302D02F933F934F935F936F937F938F939F934A
S11302E0AF93BF93EF93FF9324B185B190E0880F50
S11302F0991F880F991F822B8031910514F4A7DF71
S113030004C0803C93400CF0BFDFFF91EF91BF919C
S1130310AF919F918F917F916F915F914F913F9199
S11303202F910F900BBE0F900FBE0F901F9018953A
S11303301F920F920FB60F9211248F939F93809167
S113034004019091050101969093050180930401A5
S11303509F918F910F900FBE0F901F901895109240
S113036061008FEF8ABB84BB81BB81E087BB9FDECA
S1130370C4DEC1E009C080E0A9DE8C2FA3DE80E0EA
S1130380A1DE80E0AFDECF5FC530A8F358DF7894FC
S113039051DFFFCF97FB072E16F4009406D077FDAC
S11303A008D00BD007FC05D03EF4909581959F4F63
S11303B00895709561957F4F0895AA1BBB1B51E169
S11303C007C0AA1FBB1FA617B70710F0A61BB70BC1
S11303D0881F991F5A95A9F780959095BC01CD0166
S10903E00895F894FFCF1C
S9030000FC
