S014000066696E616C50726F6A6563742E737265632F
S113000045C0000053C0000051C000004FC00000B4
S11300104DC000004BC0000049C0000047C00000B4
S113002045C0000022C1000041C000003FC00000E4
S11300303DC000003BC0000039C0000037C00000D4
S113004035C0000033C0000031C000002FC00000E4
S11300502DC00000D0C0000029C0000027C000004F
S113006025C0000023C0000021C000001FC0000004
S11300701DC000001BC0000019C0000017C0000014
S113008015C0000013C0000011C0000011241FBEE1
S1130090CFEFD0E1DEBFCDBF21E0A0E0B1E001C0F1
S11300A01D92A631B207E1F7F7D001C1A9CF109292
S11300B0710080E28093700084E08093740008955E
S11300C084EA80937400809174008823E4F708958F
S11300D084E9809374008091740084FDFCCF0895BA
S11300E08093730084E88093740080917400882363
S11300F0E4F780917100887F0895E2DF88EEF0DFF5
S113010081E2EEDFE5DF8FE19EE40197F1F700C0C5
S11301100000D6DF88EEE4DF80EAE2DFD9DF8FE19A
S11301209EE40197F1F700C00000CADF88EED8DF33
S113013081E8D6DFCDDF8FE19EE40197F1F700C0BF
S11301400000BEDF88EECCDF8FEECADFC1DF8FE1B7
S11301509EE40197F1F700C000000895CF93DF9368
S1130160C0E010C0DC2FDD0FED2FF0E0E050FF4FBA
S11301701082A6DF88EEB4DF8D2FB2DF80E0B0DF1F
S1130180A7DFCF5FC83070F3DF91CF9108958091DE
S1130190100190911101892B49F081E085BB809178
S11301A0140182BB109211011092100181E090E0C1
S11301B0909313018093120110921501109214016F
S11301C008958091120190911301892B49F083E0E5
S11301D085BB8091140182BB10921301109212010D
S11301E081E090E090931101809310011092150129
S11301F01092140108951F920F920FB60F921124BA
S11302000BB60F922F933F934F935F936F937F930C
S11302108F939F93AF93BF93EF93FF9324B135B123
S1130220832F90E028BB3BBB880F991F880F991F31
S1130230822B8031910514F4AADF04C0803C9340E2
S11302400CF0BFDFFF91EF91BF91AF919F918F9120
S11302507F916F915F914F913F912F910F900BBEC2
S11302600F900FBE0F901F9018951F920F920FB60C
S11302700F9211248F939F938091140190911501F3
S1130280019690931501809314019F918F910F9083
S11302900FBE0F901F9018950ADF2FDF5FDF80E0FD
S11302A090E001C0019688309105E4F3FFCFF89403
S10502B0FFCF7A
S9030000FC
