S014000066696E616C50726F6A6563742E737265632F
S113000045C000004BC0000049C0000047C00000CC
S113001045C0000043C0000041C000003FC00000D4
S11300203DC000003BC0000039C0000037C00000E4
S113003035C0000033C0000031C000002FC00000F4
S11300402DC000002BC0000029C0000027C0000004
S113005025C000002FC0000021C000001FC0000008
S11300601DC000001BC0000019C0000017C0000024
S113007015C0000013C0000011C000000FC0000034
S11300800DC000000BC0000009C0000011241FBEF9
S1130090CFEFD0E1DEBFCDBF49D051C0B1CF81E6B3
S11300A087B98EEE86B9089581E085BB089583E013
S11300B085BB08951F920F920FB60F9211240BB6B1
S11300C00F922F933F934F935F936F937F938F93ED
S11300D09F93AF93BF93EF93FF9324B135B1832FD5
S11300E090E028BB3BBB880F991F880F991F822B78
S11300F08031910514F4D8DF06C0803C934014F09D
S1130100D6DF01C015BAFF91EF91BF91AF919F91D6
S11301108F917F916F915F914F913F912F910F90AC
S11301200BBE0F900FBE0F901F9018951092610098
S11301308FEF8ABB87BB84BB7894B1DFFFCFF89481
S1050140FFCFEB
S9030000FC
