S014000066696E616C50726F6A6563742E737265632F
S113000045C0000053C0000051C000004FC00000B4
S11300104DC000004BC0000049C0000047C00000B4
S113002045C00000BFC0000041C000003FC0000048
S11300303DC000003BC0000039C0000037C00000D4
S113004035C0000033C0000031C000002FC00000E4
S11300502DC000006DC0000029C0000027C00000B2
S113006025C0000023C0000021C000001FC0000004
S11300701DC000001BC0000019C0000017C0000014
S113008015C0000013C0000011C0000011241FBEE1
S1130090CFEFD0E1DEBFCDBF21E0A0E0B1E001C0F1
S11300A01D92A630B207E1F794D09EC0A9CF81E695
S11300B087B98EEE86B908958DE783BD8BE085BD43
S11300C087B7806887BF08958091000190910101EE
S11300D0892B49F081E085BB8091040182BB109299
S11300E001011092000181E090E09093030180935C
S11300F002011092050110920401089580910201F9
S113010090910301892B49F083E085BB8091040120
S113011082BB109203011092020181E090E090935F
S113012001018093000110920501109204010895C9
S11301301F920F920FB60F9211240BB60F922F93AA
S11301403F934F935F936F937F938F939F93AF935B
S1130150BF93EF93FF9324B135B1832F90E028BB75
S11301603BBB880F991F880F991F822B8031910503
S113017014F4AADF04C0803C93400CF0BFDFFF916D
S1130180EF91BF91AF919F918F917F916F915F910B
S11301904F913F912F910F900BBE0F900FBE0F9078
S11301A01F9018951F920F920FB60F9211248F93E0
S11301B09F9380910401909105010196909305010C
S11301C0809304019F918F910F900FBE0F901F9009
S11301D01895109261008FEF8ABB87BB84BB81BBEB
S10F01E06BDF789464DFFFCFF894FFCF4E
S9030000FC
