S014000066696E616C50726F6A6563742E737265632F
S113000045C0000060C000005EC000005CC000008D
S11300105AC0000058C0000056C0000054C0000080
S113002052C00000E8C100004EC000004CC00000F7
S11300304AC0000048C0000046C0000044C00000A0
S113004042C0000040C000003EC000003CC00000B0
S11300503AC0000096C1000036C0000034C0000061
S113006032C0000030C000002EC000002CC00000D0
S11300702AC0000028C0000026C0000024C00000E0
S113008022C0000020C000001EC0000011241FBEBA
S1130090CFEFD0E1DEBFCDBF11E0A0E0B1E0EEE5EF
S11300A0F6E000E00BBF02C007900D92A631B10745
S11300B0D9F721E0A6E1B1E001C01D92A233B20755
S11300C0E1F7E6D1CAC29CCF1092710080E280931E
S11300D0700084E080937400089584EA809374002F
S11300E0809174008823E4F7089584E98093740070
S11300F08091740084FDFCCF08958093730084E89C
S113010080937400809174008823E4F780917100D7
S1130110887F08950F931F93CF93DF93C0E0D0E0BF
S11301200CC08E01000F111FD8DF88EEE6DF802F90
S1130130E4DF80E0E2DFD9DF2196C830D1058CF31B
S1130140DF91CF911F910F910895BEDF8FE19EE45F
S11301500197F1F700C00000C0DF88EECEDF81E236
S1130160CCDFC3DF8FE19EE40197F1F700C000000C
S1130170B4DF88EEC2DF80EAC0DFB7DF8FE19EE440
S11301800197F1F700C00000A8DF88EEB6DF81E830
S1130190B4DFABDF8FE19EE40197F1F700C000000C
S11301A09CDF88EEAADF8FEEA8DF9FDF8FE19EE45D
S11301B00197F1F700C00000ADCF08950F931F938E
S11301C0CF93DF9389309105B0F48C01000F111F98
S11301D0EB01D595C7957695762F66277795679524
S11301E07727C62BD72B79DF88EE87DF802F85DF33
S11301F08C2F83DF7ADFDF91CF911F910F910895C8
S113020008950F931F93CF93DF9300E010E0C0E0B5
S1130210D0E034C0FE01EE0FFF1FE85EFE4F808188
S11302209181892B19F00F5F1F4F27C0FE01EE0F3C
S1130230FF1FEA5FFE4F608171816038710519F01C
S1130240660F771F02C061E070E0FE01EE0FFF1F32
S1130250EA5FFE4F71836083CE01B0DF93D16AE021
S113026070E022D1892B49F4FE01EE0FFF1FE85EF6
S1130270FE4F81E090E0918380832196C830D105C0
S11302804CF20830110561F481E090E0909317017D
S11302908093160180E091E090930501809304011E
S11302A0DF91CF911F910F91089581E687B98EEE6A
S11302B086B908958DE783BD8BE085BD87B78068D7
S11302C087BF089510922F0110922E0180E090E0D4
S11302D008C0FC01EE0FFF1FE85EFE4F1182108282
S11302E0019688309105ACF381E091E0909305018B
S11302F08093040108958091280190912901892B0C
S113030091F081E085BB8091300182BB8091300106
S11303109091310190932D0180932C011092290129
S113032010922801CFDF81E090E090932B0180931D
S11303302A011092310110923001089580912A010E
S113034090912B01892B91F083E085BB8091300142
S113035082BB809130019091310190932D01809363
S11303602C0110922B0110922A01ACDF81E090E065
S11303709093290180932801109231011092300149
S113038008951F920F920FB60F9211240BB60F927D
S11303902F933F934F935F936F937F938F939F9389
S11303A0AF93BF93EF93FF9324B135B1832F90E0C4
S11303B028BB3BBB880F991F880F991F822B803164
S11303C0910514F498DF04C0803C93400CF0B6DF30
S11303D0FF91EF91BF91AF919F918F917F916F9119
S11303E05F914F913F912F910F900BBE0F900FBED5
S11303F00F901F9018951F920F920FB60F92112411
S11304000BB60F922F933F934F935F936F937F930A
S11304108F939F93AF93BF93EF93FF93809130019A
S11304209091310101969093310180933001209194
S11304302E0130912F012F5F3F4F30932F012093D6
S11304402E0180912C0190912D016AE570E02CD051
S11304500A96821793074CF4E0910401F091050188
S1130460099510922F0110922E01FF91EF91BF91E7
S1130470AF919F918F917F916F915F914F913F9138
S11304802F910F900BBE0F900FBE0F901F901895D9
S1130490109261008FEF8ABB87BB84BB81BB0ADFEC
S11304A0789403DF52DEFFCF97FB072E16F40094F7
S11304B006D077FD08D00BD007FC05D03EF490950C
S11304C081959F4F0895709561957F4F0895AA1B5C
S11304D0BB1B51E107C0AA1FBB1FA617B70710F02B
S11304E0A61BB70B881F991F5A95A9F7809590955D
S11304F0BC01CD0108958F929F92AF92BF92CF928B
S1130500DF92EF92FF92CF93DF93EC0168817981C0
S11305108A819B81611571058105910521F464E24D
S113052079ED8BE597E02DE133EF41E050E038D0F1
S113053049015A019B01AC01A7EAB1E44DD06B011A
S11305407C01ACEEB4EFA501940152D0DC01CB01E7
S11305508C0D9D1DAE1DBF1DB7FF03C00197A109E2
S1130560B04888839983AA83BB839F77DF91CF9117
S1130570FF90EF90DF90CF90BF90AF909F908F90BF
S11305800895B9CF80E091E0B6CFA0E0B0E08093C9
S1130590000190930101A0930201B0930301089517
S11305A0052E97FB16F400940FD057FD05D024D0E8
S11305B007FC02D046F408C050954095309521952B
S11305C03F4F4F4F5F4F089590958095709561957B
S11305D07F4F8F4F9F4F089531D0A59F900DB49FAB
S11305E0900DA49F800D911D11240895B7FFF4CFA1
S11305F0F3DF821B930B0895A1E21A2EAA1BBB1BE7
S1130600FD010DC0AA1FBB1FEE1FFF1FA217B307DA
S1130610E407F50720F0A21BB30BE40BF50B661FF0
S1130620771F881F991F1A9469F7609570958095B4
S113063090959B01AC01BD01CF010895A29FB0012B
S1130640B39FC001A39F700D811D1124911DB29F02
S1110650700D811D1124911D0895F894FFCFA3
S113065E0100000000010100010001000100010081
S109066E0100010001007F
S9030000FC
