S014000066696E616C50726F6A6563742E737265632F
S113000045C0000053C0000051C000004FC00000B4
S11300104DC000004BC0000049C0000047C00000B4
S113002045C000004EC1000041C000003FC00000B8
S11300303DC000003BC0000039C0000037C00000D4
S113004035C0000033C0000031C000002FC00000E4
S11300502DC00000FCC0000029C0000027C0000023
S113006025C0000023C0000021C000001FC0000004
S11300701DC000001BC0000019C0000017C0000014
S113008015C0000013C0000011C0000011241FBEE1
S1130090CFEFD0E1DEBFCDBF21E0A0E0B1E001C0F1
S11300A01D92A630B207E1F723D13BC1A9CF10922C
S11300B0710080E28093700084E08093740008955E
S11300C084EA80937400809174008823E4F708958F
S11300D084E9809374008091740084FDFCCF0895BA
S11300E08093730084E88093740080917400882363
S11300F0E4F780917100887F08950F931F93CF9345
S1130100DF93C0E0D0E00CC08E01000F111FD8DFD8
S113011088EEE6DF802FE4DF80E0E2DFD9DF21969E
S1130120C830D1058CF3DF91CF911F910F910895C1
S1130130BEDF8FE19EE40197F1F700C00000C0DF4D
S113014088EECEDF81E2CCDFC3DF8FE19EE401974E
S1130150F1F700C00000B4DF88EEC2DF80EAC0DF40
S1130160B7DF8FE19EE40197F1F700C00000A8DF3C
S113017088EEB6DF81E8B4DFABDF8FE19EE4019760
S1130180F1F700C000009CDF88EEAADF8FEEA8DF45
S11301909FDF8FE19EE40197F1F700C00000ADCF2F
S11301A008950F931F93CF93DF9389309105B0F493
S11301B08C01000F111FEB01D595C7957695762F0D
S11301C06627779567957727C62BD72B79DF88EE37
S11301D087DF802F85DF8C2F83DF7ADFDF91CF915C
S11301E01F910F9108958091000190910101892B35
S11301F049F081E085BB8091040182BB109201012A
S11302001092000181E090E0909303018093020139
S113021010920501109204010895809102019091B9
S11302200301892B49F083E085BB8091040182BBE3
S1130230109203011092020181E090E09093010179
S113024080930001109205011092040108951F92F9
S11302500F920FB60F9211240BB60F922F933F9368
S11302604F935F936F937F938F939F93AF93BF93BA
S1130270EF93FF9324B135B1832F90E028BB3BBBB0
S1130280880F991F880F991F822B8031910514F4D0
S1130290AADF04C0803C93400CF0BFDFFF91EF91D4
S11302A0BF91AF919F918F917F916F915F914F918A
S11302B03F912F910F900BBE0F900FBE0F901F9088
S11302C018951F920F920FB60F9211248F939F933C
S11302D0809104019091050101969093050180930A
S11302E004019F918F910F900FBE0F901F9018954E
S11302F01FDFC1E0D0E0CC0FDD1FC11521E0D20724
S113030011F4C1E0D0E0BE0180E090E04ADF8FEF5D
S113031090E722E0815090402040E1F700C00000C7
S1090320EACFF894FFCFC0
S9030000FC
