S01900007765656B3261737369676E6D656E7442322E7372656380
S113000045C000004CC000005FC0000047C00000B5
S113001045C0000043C0000041C000003FC00000D4
S11300203DC000003BC0000039C0000037C00000E4
S113003035C0000033C0000031C000002FC00000F4
S11300402DC000002BC0000029C0000027C0000004
S113005025C0000023C0000021C000001FC0000014
S11300601DC000001BC0000019C0000017C0000024
S113007015C0000013C0000011C000000FC0000034
S11300800DC000000BC0000009C0000011241FBEF9
S1130090CFEFD0E1DEBFCDBF2CD040C0B1CF1F9297
S11300A00F920FB60F9211248F938BB3803821F0E7
S11300B08BB3880F8BBB02C081E08BBB8F910F90F9
S11300C00FBE0F901F9018951F920F920FB60F92AC
S11300D011248F938BB3813021F08BB386958BBB26
S11300E002C080E88BBB8F910F900FBE0F901F90C2
S11300F0189511BA8FEF8ABB8FE080936A0083E072
S113010089BF789481E08BBB2FEF83ED90E321507E
S113011080409040E1F700C00000F6CFF894FFCF94
S9030000FC
