S01900006C65645F6D61747269785F7465737465722E73726563EC
S113000045C0000053C0000051C000004FC00000B4
S11300104DC000004BC0000049C0000047C00000B4
S113002045C0000043C0000041C000003FC00000C4
S11300303DC000003BC0000039C0000037C00000D4
S113004035C0000033C0000031C000002FC00000E4
S11300502DC000002BC0000029C0000027C00000F4
S113006025C0000023C0000021C000001FC0000004
S11300701DC000001BC0000019C0000017C0000014
S113008015C0000013C0000011C0000011241FBEE1
S1130090CFEFD0E1DEBFCDBF21E0A0E0B1E001C0F1
S11300A01D92A031B207E1F7A2D0B0C0A9CF10923F
S11300B0710080E28093700084E08093740008955E
S11300C084EA80937400809174008823E4F708958F
S11300D084E9809374008091740084FDFCCF0895BA
S11300E08093730084E88093740080917400882363
S11300F0E4F780917100887F0895E2DF88EEF0DFF5
S113010081E2EEDFE5DF8FE19EE40197F1F700C0C5
S11301100000D6DF88EEE4DF80EAE2DFD9DF8FE19A
S11301209EE40197F1F700C00000CADF88EED8DF33
S113013081E8D6DFCDDF8FE19EE40197F1F700C0BF
S11301400000BEDF88EECCDF8FEECADFC1DF8FE1B7
S11301509EE40197F1F700C000000895CF93DF9368
S1130160C0E010C0DC2FDD0FED2FF0E0E050FF4FBA
S11301701082A6DF88EEB4DF8D2FB2DF80E0B0DF1F
S1130180A7DFCF5FC83070F3DF91CF910895CF938D
S1130190883058F5683048F5C62FCC0F21E030E0A0
S11301A0B90102C0660F771F8A95E2F7CB01442399
S11301B041F0EC2FF0E0E050FF4F9081892B8083D9
S11301C008C0EC2FF0E0E050FF4F80959081892328
S11301D0808376DF88EE84DF8C2F82DFEC2FF0E0E3
S11301E0E050FF4F80817CDF73DFCF9108955FDFA4
S11301F084DFB4DFC0E0D0E005C041E06C2F8C2F79
S1130200C6DF2196C830D105C4F3FFCFF894FFCFE1
S9030000FC
