S01900006C65645F6D61747269785F7465737465722E73726563EC
S113000045C000004BC0000049C0000047C00000CC
S113001045C0000043C0000041C000003FC00000D4
S11300203DC000003BC0000039C0000037C00000E4
S113003035C0000033C0000031C000002FC00000F4
S11300402DC000002BC0000029C0000027C0000004
S113005025C0000023C0000021C000001FC0000014
S11300601DC000001BC0000019C0000017C0000024
S113007015C0000013C0000011C000000FC0000034
S11300800DC000000BC0000009C0000011241FBEF9
S1130090CFEFD0E1DEBFCDBF86D08AC0B1CF109202
S11300A0710080E28093700084E08093740008956E
S11300B084EA80937400809174008823E4F708959F
S11300C084E9809374008091740084FDFCCF0895CA
S11300D08093730084E88093740080917400882373
S11300E0E4F780917100887F0895E2DF88EEF0DF05
S11300F081E2EEDFE5DF8FE19EE40197F1F700C0D6
S11301000000D6DF88EEE4DF80EAE2DFD9DF8FE1AA
S11301109EE40197F1F700C00000CADF88EED8DF43
S113012081E8D6DFCDDF8FE19EE40197F1F700C0CF
S11301300000BEDF88EECCDF8FEECADFC1DF8FE1C7
S11301409EE40197F1F700C000000895CF93C0E04A
S113015009C0AEDF88EEBCDF8C2FBADF80E0B8DFE9
S1130160AFDFCF5FC031A8F38FE19EE40197F1F7D1
S113017000C00000CF9108959BDF88EEA9DF8EE0D8
S1130180A7DF80EFA5DF9CDF93DF88EEA1DF8FE0A0
S11301909FDF80EF9DDF94DF8FE19EE40197F1F70D
S11301A000C0000008957BDFA0DFD0DFE5DFFFCFD4
S10701B0F894FFCFED
S9030000FC
