S01900006C65645F6D61747269785F7465737465722E73726563EC
S113000045C000004BC0000049C0000047C00000CC
S113001045C0000043C0000041C000003FC00000D4
S11300203DC000003BC0000039C0000037C00000E4
S113003035C0000033C0000031C000002FC00000F4
S11300402DC000002BC0000029C0000027C0000004
S113005025C0000023C0000021C000001FC0000014
S11300601DC000001BC0000019C0000017C0000024
S113007015C0000013C0000011C000000FC0000034
S11300800DC000000BC0000009C0000011241FBEF9
S1130090CFEFD0E1DEBFCDBF79D07DC0B1CF10921C
S11300A0710080E28093700084E08093740008956E
S11300B084EA80937400809174008823E4F708959F
S11300C084E9809374008091740084FDFCCF0895CA
S11300D08093730084E88093740080917400882373
S11300E0E4F780917100887F0895E2DF88EEF0DF05
S11300F081E2EEDFE5DF8FE19EE40197F1F700C0D6
S11301000000D6DF88EEE4DF81E8E2DFD9DF8FE1AB
S11301109EE40197F1F700C00000CADF88EED8DF43
S11301208FEED6DFCDDF8FE19EE40197F1F700C0BB
S113013000000895CF93C0E009C0BADF88EEC8DF9D
S11301408C2FC6DF80E0C4DFBBDFCF5FC830A8F3ED
S11301508FE19EE40197F1F700C00000CF9108956C
S1130160CF93C4E009C0A4DF88EEB2DF8C2FB0DFE8
S113017080E8AEDFA5DFCF5FC830A8F38FE19EE44F
S11301800197F1F700C00000CF91089588DFADDF3B
S10D0190D1DFE6DFFFCFF894FFCFC4
S9030000FC
