S01900007765656B3261737369676E6D656E7442332E737265637F
S113000045C0000058C0000056C0000054C00000A5
S113001052C0000050C000004EC000004CC00000A0
S11300204AC0000048C0000046C0000044C00000B0
S113003042C0000040C000003EC000003CC00000C0
S11300403AC0000038C0000036C0000034C00000D0
S113005032C0000030C000002EC000002CC00000E0
S11300602AC0000028C0000026C0000024C00000F0
S113007022C0000020C000001EC000001CC0000000
S11300801AC0000018C0000016C0000011241FBED2
S1130090CFEFD0E1DEBFCDBF11E0A0E0B1E0E4E5F9
S11300A0F1E000E00BBF02C007900D92A031B10750
S11300B0D9F73BD04DC0A4CF20E030E008C0EFEC2E
S11300C0F7E03197F1F700C000002F5F3F4F28178A
S11300D03907ACF30895CF93DF93CDB7DEB76097BC
S11300E00FB6F894DEBF0FBECDBF20E1E0E0F1E033
S11300F0DE01119601900D922A95E1F78031910568
S113010018F089E788BB08C0E1E0F0E0EC0FFD1FC0
S1130110E80FF91F808188BB60960FB6F894DEBFA4
S11301200FBECDBFDF91CF9108958FEF8ABB87BB00
S113013011BAC1E0D0E0809B02C0219702C081992E
S11301402196CE01C8DFCBBB84E690E0B5DFF3CFC8
S1070150F894FFCF4D
S11301543F065B4F666D7D077F6F777C395E7971EF
S9030000FC
